:100000000C945D000C9485000C9485000C94850084
:100010000C9485000C9485000C9485000C9485004C
:100020000C9485000C9485000C9485000C9485003C
:100030000C9485000C9485000C9485000C9485002C
:100040000C94F8040C9485000C9468050C944205FB
:100050000C9485000C9485000C9485000C9485000C
:100060000C9485000C94850000000008000201003B
:100070000003040700000000000000000000000072
:10008000250028002B0000000000240027002A0083
:10009000040404040404040402020202020203032E
:1000A0000303030301020408102040800102040836
:1000B00010200102040810209A0511241FBECFEF62
:1000C000D8E0DEBFCDBF11E0A0E0B1E0E0EDF3E1AC
:1000D00002C005900D92A435B107D9F722E0A4E53E
:1000E000B1E001C01D92AA32B207E1F710E0CDE500
:1000F000D0E004C02197FE010E94E009CC35D10771
:10010000C9F70E94E4050C94E6090C94000090E005
:10011000FC01EC55FF4F249180579F4FFC018491C7
:10012000882399F090E0880F991FFC01EA57FF4F50
:10013000A591B491FC01E458FF4F859194918FB73C
:10014000F894EC91E22BEC938FBF089590E0FC01C2
:10015000E859FF4F2491FC01EC55FF4F3491FC010D
:10016000E057FF4FE491EE23C9F0222339F023300A
:1001700001F1A8F4213019F1223029F1F0E0EE0F5D
:10018000FF1FE458FF4FA591B4918FB7F894EC91FD
:10019000611126C030953E233C938FBF08952730D0
:1001A000A9F02830C9F0243049F7809180008F7D74
:1001B00003C0809180008F7780938000DFCF84B56B
:1001C0008F7784BDDBCF84B58F7DFBCF8091B0006E
:1001D0008F778093B000D2CF8091B0008F7DF9CF20
:1001E0003E2BDACF3FB7F894809171019091720164
:1001F000A0917301B091740126B5A89B05C02F3F53
:1002000019F00196A11DB11D3FBFBA2FA92F982F3C
:100210008827BC01CD01620F711D811D911D42E037
:10022000660F771F881F991F4A95D1F708958F92FF
:100230009F92AF92BF92CF92DF92EF92FF924B01CB
:100240005C010E94F2006B017C010E94F2006C19BB
:100250007D098E099F09683E734081059105A8F3C9
:1002600021E0821A9108A108B10888EEC80E83E047
:10027000D81EE11CF11C81149104A104B10429F7DA
:10028000FF90EF90DF90CF90BF90AF909F908F90B6
:100290000895AF92BF92CF92DF92EF92FF920F93A9
:1002A0001F93CF93DF936C017B018B01040F151F0C
:1002B000EB015E01AE18BF08C017D10759F0699174
:1002C000D601ED91FC910190F081E02DC6010995D8
:1002D000892B79F7C501DF91CF911F910F91FF9085
:1002E000EF90DF90CF90BF90AF900895FC01538DB9
:1002F000448D252F30E0842F90E0821B930B541700
:1003000010F0CF96089501970895FC01918D828D8C
:10031000981761F0A28DAE0FBF2FB11D5D968C9125
:10032000928D9F5F9F73928F90E008958FEF9FEF64
:100330000895FC01918D828D981731F0828DE80F20
:10034000F11D858D90E008958FEF9FEF0895FC01DA
:10035000918D228D892F90E0805C9F4F821B9109A7
:100360008F739927089585E791E00E94A70121E006
:10037000892B09F420E0822F089580E090E0892BFA
:1003800029F00E94B30181110C9400000895FC0132
:10039000A48DA80FB92FB11DA35ABF4F2C91848DE6
:1003A00090E001968F739927848FA689B7892C9343
:1003B000A089B1898C91837080648C93938D848D96
:1003C000981306C00288F389E02D80818F7D808399
:1003D0000895EF92FF920F931F93CF93DF93EC0159
:1003E00081E0888F9B8D8C8D98131AC0E889F989DC
:1003F000808185FF15C09FB7F894EE89FF896083DF
:10040000E889F98980818370806480839FBF81E05F
:1004100090E0DF91CF911F910F91FF90EF900895A1
:10042000F62E0B8D10E00F5F1F4F0F731127E02E7C
:100430008C8D8E110CC00FB607FCFACFE889F989B4
:10044000808185FFF5CFCE010E94C701F1CFEB8DF2
:10045000EC0FFD2FF11DE35AFF4FF0829FB7F89488
:100460000B8FEA89FB8980818062CFCFCF93DF93A6
:10047000EC01888D8823B9F0AA89BB89E889F989BC
:100480008C9185FD03C0808186FD0DC00FB607FCF1
:10049000F7CF8C9185FFF2CF808185FFEDCFCE0124
:1004A0000E94C701E9CFDF91CF910895089590E0B0
:1004B00080E00895FB0101900020E9F73197AF013A
:1004C000461B570BDC01ED91FC910280F381E02D7E
:1004D00009948F929F92AF92BF92EF92FF920F93E7
:1004E0001F93CF93DF93CDB7DEB7A1970FB6F894E4
:1004F000DEBF0FBECDBF7C01FA01CB0119A22230B5
:1005000008F42AE08E010F5D1F4F822E912CB12C32
:10051000A12CBF01A50194010E94BE09F901CA01E5
:100520006A300CF5605DD8016E938D01232B242B6E
:10053000252B79F790E080E0109721F0BD01C701ED
:100540000E945A02A1960FB6F894DEBF0FBECDBF2F
:10055000DF91CF911F910F91FF90EF90BF90AF90DF
:100560009F908F900895695CDECF2F923F924F92BB
:100570005F926F927F928F929F92AF92BF92CF9233
:10058000DF92EF92FF921F93CF93DF93EC016A010A
:100590007B01722EAB019601CB01B6010E94B90915
:1005A0006EE171E0811126C046015701E894B7F869
:1005B0002FEF3FEF4FE75FE7C501B4010E94B90994
:1005C00081110CC02FEF3FEF4FE75FE7C501B4018A
:1005D0000E94EF0762E271E0181664F02FEF3FEF20
:1005E0004FE75FE4C701B6010E9447091816B4F44B
:1005F00066E271E0CE01DF91CF911F91FF90EF9005
:10060000DF90CF90BF90AF909F908F907F906F9032
:100610005F904F903F902F900C945A022FEF3FEF36
:100620004FE75FECC701B6010E94EF0787FDE0CFFF
:1006300020E030E0A901C701B6010E94EF07312C8C
:10064000212C87FF0DC0E881F9810190F081E02D18
:100650006DE2CE0109951C01F7FAF094F7F8F094D9
:1006600010E060E070E080E09FE3711641F020E070
:1006700030E040E251E40E94F4071F5FF6CFA7018B
:1006800096010E9483072B013C010E9466084B01E2
:100690005C012AE0BC01A401CE010E9469027C0138
:1006A000E20CF31C1123E1F1C501B4010E9495088D
:1006B0009B01AC01C301B2010E9482074B015C01A6
:1006C000E881F9810190F081E02D6EE2CE0109957B
:1006D000E80EF91E115020F120E030E040E251E434
:1006E000C501B4010E944C092B013C010E9466081F
:1006F0004B01B12CA12C2AE0B501A401CE010E942E
:100700006902E80EF91EC501B4010E9495089B011B
:10071000AC01C301B2010E9482074B015C01DACF38
:10072000C701DF91CF911F91FF90EF90DF90CF90A5
:10073000BF90AF909F908F907F906F905F904F9001
:100740003F902F900895CF93DF93EC0160E08E816E
:100750000E94A60061E08E810E94A60060E08E816A
:100760000E94A6008BE891E00197F1F7DF91CF910D
:100770000895CF92DF92EF92FF920F931F93CF9342
:10078000DF936C017C0187E0E80EF11CD0E0C0E053
:10079000062F10E0B8010C2E02C0759567950A94DB
:1007A000E2F76170F70181917F010E94A600219616
:1007B000C430D10579F7C601DF91CF911F910F9118
:1007C000FF90EF90DF90CF900C94A303CF92DF9235
:1007D000EF92FF920F931F93CF93DF93EC01F62ECE
:1007E000642F8C810E94A6008D818F3F19F060E0FC
:1007F0000E94A6000F2D10E08F8584FF25C06E019A
:1008000087E0C80ED11CF12CE12CB8010E2C02C0DF
:10081000759567950A94E2F76170F60181916F0111
:100820000E94A600FFEFEF1AFF0A88E0E816F10425
:1008300061F7CE01DF91CF911F910F91FF90EF9063
:10084000DF90CF900C94A303B80184E07595679571
:100850008A95E1F7CE010E94B9036F2DCE01DF9199
:10086000CF911F910F91FF90EF90DF90CF900C945C
:10087000B90340E0682F82E192E00C94E603CF9345
:10088000DF93823029F490912102986090932102A5
:10089000809325021092260280E48093270280E153
:1008A0008093280280E580932902809116020E949D
:1008B0008700809117028F3F11F00E94870080917E
:1008C00018020E948700C2E1D2E09E01225132400C
:1008D0008091210284FD0AC084E090E021962817CF
:1008E00039073CF48E810E948700EFCF88E090E0CA
:1008F000F5CF8BE39DE00197F1F760E08091160260
:100900000E94A60060E0809118020E94A6008091DB
:1009100017028F3F19F060E00E94A600809121022B
:1009200084FD39C063E082E192E00E94B903CBE428
:10093000D6E4CE010197F1F763E082E192E00E94F4
:10094000B9032197F1F763E082E192E00E94B903D5
:1009500083E592E00197F1F762E082E192E00E9484
:10096000B9038091210280620E94390484E080935F
:1009700022028CE00E94390481E00E9439048BE35A
:100980009FE10197F1F782E08093230286E0DF91F7
:10099000CF910C94390480620E9439048BE496E470
:1009A0000197F1F78091210280620E94390483E56A
:1009B00092E00197F1F78091210280620E94390450
:1009C000D0CF843008F083E090912502891710F091
:1009D0008FEF890FE82FF0E0EE5EFD4F848980688D
:1009E0000C94390441E00E94E60381E090E0089510
:1009F0001F920F920FB60F9211242F933F938F9354
:100A00009F93AF93BF9380916D0190916E01A091E0
:100A10006F01B091700130916C0123E0230F2D37ED
:100A200058F50196A11DB11D20936C0180936D01B5
:100A300090936E01A0936F01B0937001809171014A
:100A400090917201A0917301B09174010196A11D62
:100A5000B11D8093710190937201A0937301B093C3
:100A60007401BF91AF919F918F913F912F910F9002
:100A70000FBE0F901F90189526E8230F0296A11D18
:100A8000B11DD2CF1F920F920FB60F9211242F9348
:100A90003F934F935F936F937F938F939F93AF9306
:100AA000BF93EF93FF9385E791E00E94C701FF9109
:100AB000EF91BF91AF919F918F917F916F915F91D6
:100AC0004F913F912F910F900FBE0F901F9018954F
:100AD0001F920F920FB60F9211242F938F939F9313
:100AE000EF93FF93E0918501F09186018081E09181
:100AF0008B01F0918C0182FD1BC0908180918E0151
:100B00008F5F8F7320918F01821741F0E0918E01EA
:100B1000F0E0EB58FE4F958F80938E01FF91EF919F
:100B20009F918F912F910F900FBE0F901F9018954E
:100B30008081F4CFE5E7F1E01382128288EE93E042
:100B4000A0E0B0E084839583A683B78384E091E03E
:100B50009183808385EC90E09587848784EC90E096
:100B60009787868780EC90E0918B808B81EC90E07A
:100B7000938B828B82EC90E0958B848B86EC90E05B
:100B8000978B868B118E128E138E148EE2E1F2E01B
:100B90001382128286E191E09183808382E08483D4
:100BA0008FEF858383E0868384E0878385E0808779
:100BB00086E0818787E082871386148615861686ED
:100BC000178681E00C943F04789484B5826084BDDC
:100BD00084B5816084BD85B5826085BD85B5816041
:100BE00085BD80916E00816080936E0010928100BF
:100BF000809181008260809381008091810081607A
:100C0000809381008091800081608093800080913A
:100C1000B10084608093B1008091B00081608093C6
:100C2000B00080917A00846080937A0080917A008D
:100C3000826080937A0080917A00816080937A004C
:100C400080917A00806880937A001092C100E091D0
:100C50008501F091860182E08083E0918101F0912D
:100C600082011082E0918301F09184018FEC8083F6
:100C700010928D01E0918901F0918A0186E08083D4
:100C8000E0918701F0918801808180618083E0910B
:100C90008701F0918801808188608083E0918701DD
:100CA000F0918801808180688083E0918701F091D4
:100CB000880180818F7D80836AE271E085E791E021
:100CC0000E945A0260E371E085E791E00E945A02B7
:100CD00088E00E94870089E00E94870060E088E049
:100CE0000E94A60060E089E00E94A60082E00E94C7
:100CF0003F0480E00E94E10463E371E082E192E05E
:100D00000E945A0281E00E94E10469E371E082E1FD
:100D100092E00E945A0268EE73E080E090E00E9448
:100D2000170181E00E9439048BE39FE10197F1F7FD
:100D300090E4D92ECAE6D1E008E611E020E0E22EE8
:100D400020E0F22E88E5A82E81E0B82ED0927C001B
:100D500080917A00806480937A0080917A0086FD89
:100D6000FCCF8091780090917900F5018193919367
:100D70005F016AE070E080E090E00E941701FCE60D
:100D8000AF16F1E0BF0611F7E8E5F1E0DF01808181
:100D9000918112962D913C9113972817390734F4BD
:100DA0003183208313969C938E9312971296CA17C1
:100DB000DB0769F7329681E0EA36F80739F7ECE5A8
:100DC000F1E060E070E0CB0181909190092C000C83
:100DD000AA08BB08680D791D8A1D9B1D0E171F07E9
:100DE00099F7609354017093550180935601909345
:100DF00057010E94950820E030E040EA50E40E944C
:100E00004C0920E030E040E85AE30E944C0920E021
:100E100030E040EC50E40E94F40720E030E040E68F
:100E200050E40E944C094B015C016FE371E085E7DF
:100E300091E00E945A0222E0B501A40185E791E009
:100E40000E94B50262E571E085E791E00E945A02D6
:100E500060E371E085E791E00E945A0280E00E9421
:100E6000E10467E471E082E192E00E945A028CE0C2
:100E70000E94E10422E0B501A40182E192E00E9417
:100E8000B50260E273E080E090E00E94170120E08C
:100E900030E040E051E4C501B4010E944709181652
:100EA000D4F461E088E00E94A60068EB7BE080E07B
:100EB00090E00E94170160E088E00E94A600E11423
:100EC000F10409F43FCF0E94B301882309F43ACF1B
:100ED0000E94000037CF20E030E040EE50E4C50132
:100EE000B4010E94EF0787FFEACF61E089E00E942A
:100EF000A60068EB7BE080E090E00E94170160E0D4
:100F000089E0DBCF5058BB27AA270E949A070C9490
:100F10000D090E94FF0838F00E94060920F039F4FC
:100F20009F3F19F426F40C94FC080EF4E095E7FBBF
:100F30000C94F608E92F0E941E0958F3BA176207AD
:100F400073078407950720F079F4A6F50C944009FF
:100F50000EF4E0950B2EBA2FA02D0B01B9019001D4
:100F60000C01CA01A0011124FF27591B99F0593F18
:100F700050F4503E68F11A16F040A22F232F342F60
:100F80004427585FF3CF469537952795A795F040AE
:100F90005395C9F77EF41F16BA0B620B730B840BC3
:100FA000BAF09150A1F0FF0FBB1F661F771F881F7B
:100FB000C2F70EC0BA0F621F731F841F48F48795D3
:100FC00077956795B795F7959E3F08F0B0CF9395C5
:100FD000880F08F09927EE0F9795879508950E943E
:100FE000D20808F481E008950E9408080C940D09C5
:100FF0000E94060958F00E94FF0840F029F45F3F64
:1010000029F00C94F60851110C9441090C94FC0839
:101010000E941E0968F39923B1F3552391F3951BA0
:10102000550BBB27AA2762177307840738F09F5F09
:101030005F4F220F331F441FAA1FA9F335D00E2E76
:101040003AF0E0E832D091505040E695001CCAF7E3
:101050002BD0FE2F29D0660F771F881FBB1F2617A6
:1010600037074807AB07B0E809F0BB0B802DBF017D
:10107000FF2793585F4F3AF09E3F510578F00C944C
:10108000F6080C9441095F3FE4F3983ED4F386954B
:1010900077956795B795F7959F5FC9F7880F911D6D
:1010A0009695879597F90895E1E0660F771F881F59
:1010B000BB1F621773078407BA0720F0621B730B0C
:1010C000840BBA0BEE1F88F7E09508950E9426095D
:1010D00088F09F5798F0B92F9927B751B0F0E1F0F9
:1010E000660F771F881F991F1AF0BA95C9F714C0A9
:1010F000B13091F00E944009B1E008950C9440098C
:10110000672F782F8827B85F39F0B93FCCF38695E1
:1011100077956795B395D9F73EF49095809570953E
:1011200061957F4F8F4F9F4F0895E89409C097FBBB
:101130003EF490958095709561957F4F8F4F9F4FAE
:101140009923A9F0F92F96E9BB279395F6958795F2
:1011500077956795B795F111F8CFFAF4BB0F11F4B5
:1011600060FF1BC06F5F7F4F8F4F9F4F16C088235C
:1011700011F096E911C0772321F09EE8872F762F92
:1011800005C0662371F096E8862F70E060E02AF0D3
:101190009A95660F771F881FDAF7880F96958795BF
:1011A00097F90895990F0008550FAA0BE0E8FEEF94
:1011B00016161706E807F907C0F012161306E4071B
:1011C000F50798F0621B730B840B950B39F40A2614
:1011D00061F0232B242B252B21F408950A2609F4F2
:1011E000A140A6958FEF811D811D089597F99F67F6
:1011F00080E870E060E008959FEF80EC089500249F
:101200000A941616170618060906089500240A946B
:1012100012161306140605060895092E0394000CF1
:1012200011F4882352F0BB0F40F4BF2B11F460FF80
:1012300004C06F5F7F4F8F4F9F4F089557FD9058A9
:10124000440F551F59F05F3F71F04795880F97FB8A
:10125000991F61F09F3F79F0879508951216130644
:101260001406551FF2CF4695F1DF08C01616170673
:101270001806991FF1CF86957105610508940895A8
:10128000E894BB2766277727CB0197F908950E943A
:10129000D20808F48FEF08950E945F090C940D099D
:1012A0000E94FF0838F00E94060920F0952311F0F3
:1012B0000C94F6080C94FC0811240C9441090E942B
:1012C0001E0970F3959FC1F3950F50E0551F629F63
:1012D000F001729FBB27F00DB11D639FAA27F00D8F
:1012E000B11DAA1F649F6627B00DA11D661F829FB6
:1012F0002227B00DA11D621F739FB00DA11D621F9B
:10130000839FA00D611D221F749F3327A00D611DB7
:10131000231F849F600D211D822F762F6A2F112499
:101320009F5750409AF0F1F088234AF0EE0FFF1FCC
:10133000BB1F661F771F881F91505040A9F79E3F23
:10134000510580F00C94F6080C9441095F3FE4F3DA
:10135000983ED4F3869577956795B795F795E79579
:101360009F5FC1F7FE2B880F911D9695879597F982
:1013700008950E94D208880B990B0895A1E21A2EB5
:10138000AA1BBB1BFD010DC0AA1FBB1FEE1FFF1F29
:10139000A217B307E407F50720F0A21BB30BE40B79
:1013A000F50B661F771F881F991F1A9469F76095C0
:1013B0007095809590959B01AC01BD01CF0108957A
:1013C000EE0FFF1F0590F491E02D0994F894FFCFE4
:1013D00000000000E901490176013602A7018501FC
:1013E000990100000000F2044901570256026E61A3
:1013F0006E00696E66006F76660052656164790002
:101400000D0A00205445414D00204130332000207A
:1014100020202070483A0070482056616C75652085
:041420003A2020004E
:00000001FF
